{
  "contractName": "Canvas",
  "abi": [
    {
      "inputs": [
        {
          "internalType": "uint256",
          "name": "_width",
          "type": "uint256"
        },
        {
          "internalType": "uint256",
          "name": "_height",
          "type": "uint256"
        },
        {
          "internalType": "uint256",
          "name": "_maxEpoch",
          "type": "uint256"
        },
        {
          "internalType": "address",
          "name": "_nftContractAddress",
          "type": "address"
        }
      ],
      "stateMutability": "nonpayable",
      "type": "constructor"
    },
    {
      "inputs": [],
      "name": "canvasHeight",
      "outputs": [
        {
          "internalType": "uint256",
          "name": "",
          "type": "uint256"
        }
      ],
      "stateMutability": "view",
      "type": "function"
    },
    {
      "inputs": [],
      "name": "canvasWidth",
      "outputs": [
        {
          "internalType": "uint256",
          "name": "",
          "type": "uint256"
        }
      ],
      "stateMutability": "view",
      "type": "function"
    },
    {
      "inputs": [],
      "name": "epoch",
      "outputs": [
        {
          "internalType": "uint256",
          "name": "",
          "type": "uint256"
        }
      ],
      "stateMutability": "view",
      "type": "function"
    },
    {
      "inputs": [],
      "name": "epochLimit",
      "outputs": [
        {
          "internalType": "uint256",
          "name": "",
          "type": "uint256"
        }
      ],
      "stateMutability": "view",
      "type": "function"
    },
    {
      "inputs": [],
      "name": "height",
      "outputs": [
        {
          "internalType": "uint256",
          "name": "",
          "type": "uint256"
        }
      ],
      "stateMutability": "view",
      "type": "function"
    },
    {
      "inputs": [],
      "name": "lastInteractor",
      "outputs": [
        {
          "internalType": "address",
          "name": "",
          "type": "address"
        }
      ],
      "stateMutability": "view",
      "type": "function"
    },
    {
      "inputs": [],
      "name": "maxEpoch",
      "outputs": [
        {
          "internalType": "uint256",
          "name": "",
          "type": "uint256"
        }
      ],
      "stateMutability": "view",
      "type": "function"
    },
    {
      "inputs": [],
      "name": "nftContract",
      "outputs": [
        {
          "internalType": "contract PixelCanvasNFT",
          "name": "",
          "type": "address"
        }
      ],
      "stateMutability": "view",
      "type": "function"
    },
    {
      "inputs": [
        {
          "internalType": "uint256",
          "name": "",
          "type": "uint256"
        },
        {
          "internalType": "uint256",
          "name": "",
          "type": "uint256"
        }
      ],
      "name": "pixelColors",
      "outputs": [
        {
          "internalType": "uint8",
          "name": "",
          "type": "uint8"
        }
      ],
      "stateMutability": "view",
      "type": "function"
    },
    {
      "inputs": [],
      "name": "width",
      "outputs": [
        {
          "internalType": "uint256",
          "name": "",
          "type": "uint256"
        }
      ],
      "stateMutability": "view",
      "type": "function"
    },
    {
      "inputs": [
        {
          "internalType": "uint256",
          "name": "x",
          "type": "uint256"
        },
        {
          "internalType": "uint256",
          "name": "y",
          "type": "uint256"
        },
        {
          "internalType": "uint8",
          "name": "color",
          "type": "uint8"
        }
      ],
      "name": "setPixelColor",
      "outputs": [],
      "stateMutability": "nonpayable",
      "type": "function"
    },
    {
      "inputs": [],
      "name": "getCanvasData",
      "outputs": [
        {
          "internalType": "bytes",
          "name": "",
          "type": "bytes"
        }
      ],
      "stateMutability": "view",
      "type": "function"
    }
  ],
  "bytecode": "0x60806040523480156200001157600080fd5b50604051620016e4380380620016e483398181016040528101906200003791906200020d565b600084116200007d576040517f08c379a00000000000000000000000000000000000000000000000000000000081526004016200007490620002e0565b60405180910390fd5b60008311620000c3576040517f08c379a0000000000000000000000000000000000000000000000000000000008152600401620000ba9062000352565b60405180910390fd5b6000821162000109576040517f08c379a00000000000000000000000000000000000000000000000000000000081526004016200010090620003ea565b60405180910390fd5b836006819055508260078190555081600881905550806000806101000a81548173ffffffffffffffffffffffffffffffffffffffff021916908373ffffffffffffffffffffffffffffffffffffffff160217905550505050506200040c565b600080fd5b6000819050919050565b62000182816200016d565b81146200018e57600080fd5b50565b600081519050620001a28162000177565b92915050565b600073ffffffffffffffffffffffffffffffffffffffff82169050919050565b6000620001d582620001a8565b9050919050565b620001e781620001c8565b8114620001f357600080fd5b50565b6000815190506200020781620001dc565b92915050565b600080600080608085870312156200022a576200022962000168565b5b60006200023a8782880162000191565b94505060206200024d8782880162000191565b9350506040620002608782880162000191565b92505060606200027387828801620001f6565b91505092959194509250565b600082825260208201905092915050565b7f5769647468206d7573742062652067726561746572207468616e20302e000000600082015250565b6000620002c8601d836200027f565b9150620002d58262000290565b602082019050919050565b60006020820190508181036000830152620002fb81620002b9565b9050919050565b7f486569676874206d7573742062652067726561746572207468616e20302e0000600082015250565b60006200033a601e836200027f565b9150620003478262000302565b602082019050919050565b600060208201905081810360008301526200036d816200032b565b9050919050565b7f4d61782065706f6368206d7573742062652067726561746572207468616e203060008201527f2e00000000000000000000000000000000000000000000000000000000000000602082015250565b6000620003d26021836200027f565b9150620003df8262000374565b604082019050919050565b600060208201905081810360008301526200040581620003c3565b9050919050565b6112c8806200041c6000396000f3fe608060405234801561001057600080fd5b50600436106100b45760003560e01c8063b1d5603b11610071578063b1d5603b1461017f578063b31b007b1461019d578063c06bb205146101bb578063d56d229d146101d9578063e4acfaaa146101f7578063f26d929e14610213576100b4565b80630ef26743146100b9578063307d78ce146100d75780637b8a2840146100f5578063900cf0cf146101255780639c71a380146101435780639ededf7714610161575b600080fd5b6100c1610231565b6040516100ce9190610996565b60405180910390f35b6100df610237565b6040516100ec91906109f2565b60405180910390f35b61010f600480360381019061010a9190610a3e565b61025d565b60405161011c9190610a9a565b60405180910390f35b61012d61028c565b60405161013a9190610996565b60405180910390f35b61014b610292565b6040516101589190610996565b60405180910390f35b610169610298565b6040516101769190610996565b60405180910390f35b61018761029e565b6040516101949190610b45565b60405180910390f35b6101a56103fc565b6040516101b29190610996565b60405180910390f35b6101c3610402565b6040516101d09190610996565b60405180910390f35b6101e1610408565b6040516101ee9190610bc6565b60405180910390f35b610211600480360381019061020c9190610c0d565b61042c565b005b61021b6106fa565b6040516102289190610996565b60405180910390f35b60075481565b600560009054906101000a900473ffffffffffffffffffffffffffffffffffffffff1681565b60096020528160005260406000206020528060005260406000206000915091509054906101000a900460ff1681565b60035481565b60025481565b60065481565b606060006007546006546102b29190610c8f565b67ffffffffffffffff8111156102cb576102ca610cd1565b5b6040519080825280601f01601f1916602001820160405280156102fd5781602001600182028036833780820191505090505b50905060005b6006548163ffffffff1610156103f45760005b6007548163ffffffff1610156103e057600960008363ffffffff16815260200190815260200160002060008263ffffffff16815260200190815260200160002060009054906101000a900460ff1660f81b838263ffffffff166006548563ffffffff166103839190610c8f565b61038d9190610d00565b8151811061039e5761039d610d34565b5b60200101907effffffffffffffffffffffffffffffffffffffffffffffffffffffffffffff1916908160001a90535080806103d890610d73565b915050610316565b5080806103ec90610d73565b915050610303565b508091505090565b60045481565b60015481565b60008054906101000a900473ffffffffffffffffffffffffffffffffffffffff1681565b6001548310610470576040517f08c379a000000000000000000000000000000000000000000000000000000000815260040161046790610dfc565b60405180910390fd5b60025482106104b4576040517f08c379a00000000000000000000000000000000000000000000000000000000081526004016104ab90610e68565b60405180910390fd5b73__PixelColor____________________________63ac701145826040518263ffffffff1660e01b81526004016104eb9190610e97565b602060405180830381865af4158015610508573d6000803e3d6000fd5b505050506040513d601f19601f8201168201806040525081019061052c9190610eea565b61056b576040517f08c379a000000000000000000000000000000000000000000000000000000000815260040161056290610f63565b60405180910390fd5b8060096000858152602001908152602001600020600084815260200190815260200160002060006101000a81548160ff021916908360ff16021790555033600560006101000a81548173ffffffffffffffffffffffffffffffffffffffff021916908373ffffffffffffffffffffffffffffffffffffffff16021790555073__Epoch_________________________________63235767046003546004546040518363ffffffff1660e01b8152600401610626929190610f92565b602060405180830381865af4158015610643573d6000803e3d6000fd5b505050506040513d601f19601f820116820180604052508101906106679190610eea565b1561067957610674610700565b6106f5565b73__Epoch_________________________________63b8b3cad56003546040518263ffffffff1660e01b81526004016106b29190610fbb565b602060405180830381865af41580156106cf573d6000803e3d6000fd5b505050506040513d601f19601f820116820180604052508101906106f39190610feb565b505b505050565b60085481565b600061070a6107dd565b905060008060009054906101000a900473ffffffffffffffffffffffffffffffffffffffff1673ffffffffffffffffffffffffffffffffffffffff166301382807600560009054906101000a900473ffffffffffffffffffffffffffffffffffffffff16846040518363ffffffff1660e01b815260040161078c92919061105c565b6020604051808303816000875af11580156107ab573d6000803e3d6000fd5b505050506040513d601f19601f820116820180604052508101906107cf9190610feb565b905060006003819055505050565b60606107ea60035461080e565b6040516020016107fa919061113a565b604051602081830303815290604052905090565b606060008203610855576040518060400160405280600181526020017f30000000000000000000000000000000000000000000000000000000000000008152509050610978565b600082905060005b600082146108875780806108709061115c565b915050600a8261088091906111d3565b915061085d565b60008167ffffffffffffffff8111156108a3576108a2610cd1565b5b6040519080825280601f01601f1916602001820160405280156108d55781602001600182028036833780820191505090505b50905060006001836108e79190611204565b90505b6000861461097057600a866108ff9190611238565b603061090b9190610d00565b60f81b82828061091a90611269565b93508151811061092d5761092c610d34565b5b60200101907effffffffffffffffffffffffffffffffffffffffffffffffffffffffffffff1916908160001a905350600a8661096991906111d3565b95506108ea565b819450505050505b919050565b6000819050919050565b6109908161097d565b82525050565b60006020820190506109ab6000830184610987565b92915050565b600073ffffffffffffffffffffffffffffffffffffffff82169050919050565b60006109dc826109b1565b9050919050565b6109ec816109d1565b82525050565b6000602082019050610a0760008301846109e3565b92915050565b600080fd5b610a1b8161097d565b8114610a2657600080fd5b50565b600081359050610a3881610a12565b92915050565b60008060408385031215610a5557610a54610a0d565b5b6000610a6385828601610a29565b9250506020610a7485828601610a29565b9150509250929050565b600060ff82169050919050565b610a9481610a7e565b82525050565b6000602082019050610aaf6000830184610a8b565b92915050565b600081519050919050565b600082825260208201905092915050565b60005b83811015610aef578082015181840152602081019050610ad4565b60008484015250505050565b6000601f19601f8301169050919050565b6000610b1782610ab5565b610b218185610ac0565b9350610b31818560208601610ad1565b610b3a81610afb565b840191505092915050565b60006020820190508181036000830152610b5f8184610b0c565b905092915050565b6000819050919050565b6000610b8c610b87610b82846109b1565b610b67565b6109b1565b9050919050565b6000610b9e82610b71565b9050919050565b6000610bb082610b93565b9050919050565b610bc081610ba5565b82525050565b6000602082019050610bdb6000830184610bb7565b92915050565b610bea81610a7e565b8114610bf557600080fd5b50565b600081359050610c0781610be1565b92915050565b600080600060608486031215610c2657610c25610a0d565b5b6000610c3486828701610a29565b9350506020610c4586828701610a29565b9250506040610c5686828701610bf8565b9150509250925092565b7f4e487b7100000000000000000000000000000000000000000000000000000000600052601160045260246000fd5b6000610c9a8261097d565b9150610ca58361097d565b9250828202610cb38161097d565b91508282048414831517610cca57610cc9610c60565b5b5092915050565b7f4e487b7100000000000000000000000000000000000000000000000000000000600052604160045260246000fd5b6000610d0b8261097d565b9150610d168361097d565b9250828201905080821115610d2e57610d2d610c60565b5b92915050565b7f4e487b7100000000000000000000000000000000000000000000000000000000600052603260045260246000fd5b600063ffffffff82169050919050565b6000610d7e82610d63565b915063ffffffff8203610d9457610d93610c60565b5b600182019050919050565b600082825260208201905092915050565b7f496e76616c6964207820636f6f7264696e617465000000000000000000000000600082015250565b6000610de6601483610d9f565b9150610df182610db0565b602082019050919050565b60006020820190508181036000830152610e1581610dd9565b9050919050565b7f496e76616c6964207920636f6f7264696e617465000000000000000000000000600082015250565b6000610e52601483610d9f565b9150610e5d82610e1c565b602082019050919050565b60006020820190508181036000830152610e8181610e45565b9050919050565b610e9181610a7e565b82525050565b6000602082019050610eac6000830184610e88565b92915050565b60008115159050919050565b610ec781610eb2565b8114610ed257600080fd5b50565b600081519050610ee481610ebe565b92915050565b600060208284031215610f0057610eff610a0d565b5b6000610f0e84828501610ed5565b91505092915050565b7f496e76616c696420636f6c6f7200000000000000000000000000000000000000600082015250565b6000610f4d600d83610d9f565b9150610f5882610f17565b602082019050919050565b60006020820190508181036000830152610f7c81610f40565b9050919050565b610f8c8161097d565b82525050565b6000604082019050610fa76000830185610f83565b610fb46020830184610f83565b9392505050565b6000602082019050610fd06000830184610f83565b92915050565b600081519050610fe581610a12565b92915050565b60006020828403121561100157611000610a0d565b5b600061100f84828501610fd6565b91505092915050565b600081519050919050565b600061102e82611018565b6110388185610d9f565b9350611048818560208601610ad1565b61105181610afb565b840191505092915050565b600060408201905061107160008301856109e3565b81810360208301526110838184611023565b90509392505050565b600081905092915050565b7f68747470733a2f2f6170692e6578616d706c652e636f6d2f6e66742f6d65746160008201527f646174612f000000000000000000000000000000000000000000000000000000602082015250565b60006110f360258361108c565b91506110fe82611097565b602582019050919050565b600061111482611018565b61111e818561108c565b935061112e818560208601610ad1565b80840191505092915050565b6000611145826110e6565b91506111518284611109565b915081905092915050565b60006111678261097d565b91507fffffffffffffffffffffffffffffffffffffffffffffffffffffffffffffffff820361119957611198610c60565b5b600182019050919050565b7f4e487b7100000000000000000000000000000000000000000000000000000000600052601260045260246000fd5b60006111de8261097d565b91506111e98361097d565b9250826111f9576111f86111a4565b5b828204905092915050565b600061120f8261097d565b915061121a8361097d565b925082820390508181111561123257611231610c60565b5b92915050565b60006112438261097d565b915061124e8361097d565b92508261125e5761125d6111a4565b5b828206905092915050565b60006112748261097d565b91506000820361128757611286610c60565b5b60018203905091905056fea264697066735822122052ea7acb6198c791c11e4d5cc913f298d4440ba0f82fb555092316ed581c019264736f6c63430008130033",
  "immutableReferences": {},
  "source": "// SPDX-License-Identifier: MIT\r\npragma solidity ^0.8.0;\r\n\r\nimport \"./PixelColor.sol\";\r\nimport \"./Epoch.sol\";\r\nimport \"./NFT.sol\";\r\n\r\ncontract Canvas {\r\n    \r\n    PixelCanvasNFT public nftContract;\r\n\r\n    uint public canvasWidth;\r\n    uint public canvasHeight;\r\n    uint public epoch;\r\n    uint public epochLimit;\r\n    address public lastInteractor;\r\n    uint public width;\r\n    uint public height;\r\n    uint public maxEpoch;\r\n\r\n\r\n    mapping(uint => mapping(uint => uint8)) public pixelColors;\r\n\r\n    // \r\n    constructor(uint _width, uint _height, uint _maxEpoch, address _nftContractAddress) {\r\n        require(_width > 0, \"Width must be greater than 0.\");\r\n        require(_height > 0, \"Height must be greater than 0.\");\r\n        require(_maxEpoch > 0, \"Max epoch must be greater than 0.\");\r\n    \r\n        width = _width;\r\n        height = _height;\r\n        maxEpoch = _maxEpoch;\r\n        nftContract = PixelCanvasNFT(_nftContractAddress);\r\n    }\r\n\r\n\r\n    // \r\n    function setPixelColor(uint x, uint y, uint8 color) external {\r\n        require(x < canvasWidth, \"Invalid x coordinate\");\r\n        require(y < canvasHeight, \"Invalid y coordinate\");\r\n        require(PixelColor.isValidColor(color), \"Invalid color\");\r\n\r\n        pixelColors[x][y] = color;\r\n        lastInteractor = msg.sender;\r\n\r\n        // \r\n        if (Epoch.isEpochLimitReached(epoch, epochLimit)) {\r\n            mintNFT();\r\n        } else {\r\n            Epoch.incrementEpoch(epoch);\r\n        }\r\n    }\r\n\r\n    // NFT\r\n    // NFT\r\nfunction mintNFT() internal {\r\n    // URI\r\n    string memory tokenURI = generateTokenURI();\r\n\r\n    // NFTURI\r\n    uint256 tokenId = nftContract.createToken(lastInteractor, tokenURI);\r\n\r\n    // epoch\r\n    epoch = 0;\r\n}\r\n\r\nfunction getCanvasData() external view returns (bytes memory) {\r\n    // pixelColorsbytes\r\n    bytes memory canvasData = new bytes(width * height);\r\n    for (uint32 i = 0; i < width; i++) {\r\n        for (uint32 j = 0; j < height; j++) {\r\n            canvasData[i * width + j] = bytes1(pixelColors[i][j]);\r\n        }\r\n    }\r\n    return canvasData;\r\n}\r\n\r\n\r\n    // NFTURIURI\r\n    function generateTokenURI() internal view returns (string memory) {\r\n        return string(abi.encodePacked(\"https://api.example.com/nft/metadata/\", uint2str(epoch)));\r\n    }\r\n\r\n        // :uint\r\n    function uint2str(uint _i) internal pure returns (string memory) {\r\n        if (_i == 0) {\r\n            return \"0\";\r\n        }\r\n        uint j = _i;\r\n        uint len;\r\n        while (j != 0) {\r\n            len++;\r\n            j /= 10;\r\n        }\r\n        bytes memory bstr = new bytes(len);\r\n        uint k = len - 1;\r\n        while (_i != 0) {\r\n            bstr[k--] = bytes1(uint8(48 + _i % 10));\r\n            _i /= 10;\r\n        }\r\n        return string(bstr);\r\n    }\r\n\r\n}\r\n",
  "sourcePath": "C:\\Users\\cheny\\Documents\\GitHub\\Pixel-Canvas\\contracts\\CanvasContract.sol",
  "compiler": {
    "name": "solc",
    "version": "0.8.19+commit.7dd6d404.Emscripten.clang"
  },
  "schemaVersion": "3.4.13",
  "updatedAt": "2023-05-01T06:13:29.573Z",
  "devdoc": {
    "kind": "dev",
    "methods": {},
    "version": 1
  },
  "userdoc": {
    "kind": "user",
    "methods": {},
    "version": 1
  }
}