{
  "contractName": "Epoch",
  "abi": [
    {
      "inputs": [
        {
          "internalType": "uint256",
          "name": "_currentEpoch",
          "type": "uint256"
        }
      ],
      "name": "incrementEpoch",
      "outputs": [
        {
          "internalType": "uint256",
          "name": "",
          "type": "uint256"
        }
      ],
      "stateMutability": "pure",
      "type": "function"
    },
    {
      "inputs": [
        {
          "internalType": "uint256",
          "name": "_currentEpoch",
          "type": "uint256"
        },
        {
          "internalType": "uint256",
          "name": "_epochLimit",
          "type": "uint256"
        }
      ],
      "name": "isEpochLimitReached",
      "outputs": [
        {
          "internalType": "bool",
          "name": "",
          "type": "bool"
        }
      ],
      "stateMutability": "pure",
      "type": "function"
    }
  ],
  "bytecode": "0x61026a610053600b82828239805160001a607314610046577f4e487b7100000000000000000000000000000000000000000000000000000000600052600060045260246000fd5b30600052607381538281f3fe73000000000000000000000000000000000000000030146080604052600436106100405760003560e01c80632357670414610045578063b8b3cad514610075575b600080fd5b61005f600480360381019061005a9190610104565b6100a5565b60405161006c919061015f565b60405180910390f35b61008f600480360381019061008a919061017a565b6100b3565b60405161009c91906101b6565b60405180910390f35b600081831015905092915050565b60006001826100c29190610200565b9050919050565b600080fd5b6000819050919050565b6100e1816100ce565b81146100ec57600080fd5b50565b6000813590506100fe816100d8565b92915050565b6000806040838503121561011b5761011a6100c9565b5b6000610129858286016100ef565b925050602061013a858286016100ef565b9150509250929050565b60008115159050919050565b61015981610144565b82525050565b60006020820190506101746000830184610150565b92915050565b6000602082840312156101905761018f6100c9565b5b600061019e848285016100ef565b91505092915050565b6101b0816100ce565b82525050565b60006020820190506101cb60008301846101a7565b92915050565b7f4e487b7100000000000000000000000000000000000000000000000000000000600052601160045260246000fd5b600061020b826100ce565b9150610216836100ce565b925082820190508082111561022e5761022d6101d1565b5b9291505056fea26469706673582212204555155b0979026a0ef9e1b566441640d6a2ee62c4f1bf920241e78564badb3a64736f6c63430008130033",
  "immutableReferences": {},
  "source": "// SPDX-License-Identifier: MIT\r\npragma solidity ^0.8.0;\r\n\r\nlibrary Epoch {\r\n    // \r\n    function incrementEpoch(uint _currentEpoch) public pure returns (uint) {\r\n        return _currentEpoch + 1;\r\n    }\r\n\r\n    // \r\n    function isEpochLimitReached(uint _currentEpoch, uint _epochLimit) public pure returns (bool) {\r\n        return _currentEpoch >= _epochLimit;\r\n    }\r\n}\r\n",
  "sourcePath": "C:\\Users\\cheny\\Documents\\GitHub\\Pixel-Canvas\\contracts\\Epoch.sol",
  "compiler": {
    "name": "solc",
    "version": "0.8.19+commit.7dd6d404.Emscripten.clang"
  },
  "schemaVersion": "3.4.13",
  "updatedAt": "2023-05-01T06:13:29.576Z",
  "devdoc": {
    "kind": "dev",
    "methods": {},
    "version": 1
  },
  "userdoc": {
    "kind": "user",
    "methods": {},
    "version": 1
  }
}