{
  "contractName": "PixelColor",
  "abi": [
    {
      "inputs": [
        {
          "internalType": "uint8",
          "name": "color",
          "type": "uint8"
        }
      ],
      "name": "isValidColor",
      "outputs": [
        {
          "internalType": "bool",
          "name": "",
          "type": "bool"
        }
      ],
      "stateMutability": "pure",
      "type": "function"
    }
  ],
  "bytecode": "0x610154610053600b82828239805160001a607314610046577f4e487b7100000000000000000000000000000000000000000000000000000000600052600060045260246000fd5b30600052607381538281f3fe73000000000000000000000000000000000000000030146080604052600436106100355760003560e01c8063ac7011451461003a575b600080fd5b610054600480360381019061004f91906100bb565b61006a565b6040516100619190610103565b60405180910390f35b600060ff80168260ff1611159050919050565b600080fd5b600060ff82169050919050565b61009881610082565b81146100a357600080fd5b50565b6000813590506100b58161008f565b92915050565b6000602082840312156100d1576100d061007d565b5b60006100df848285016100a6565b91505092915050565b60008115159050919050565b6100fd816100e8565b82525050565b600060208201905061011860008301846100f4565b9291505056fea2646970667358221220030c95e48e3e5a5b7562e77fed066ebeff6e32fd1e83e2763d1828720914357664736f6c63430008130033",
  "immutableReferences": {},
  "source": "// SPDX-License-Identifier: MIT\r\npragma solidity ^0.8.0;\r\n\r\nlibrary PixelColor {\r\n    // 颜色范围：0-255\r\n    uint8 constant MAX_COLOR_VALUE = 255;\r\n\r\n    // 检查颜色值是否有效\r\n    function isValidColor(uint8 color) public pure returns (bool) {\r\n        return color <= MAX_COLOR_VALUE;\r\n    }\r\n}\r\n",
  "sourcePath": "C:\\Users\\cheny\\Documents\\GitHub\\Pixel-Canvas\\contracts\\PixelColor.sol",
  "compiler": {
    "name": "solc",
    "version": "0.8.19+commit.7dd6d404.Emscripten.clang"
  },
  "schemaVersion": "3.4.13",
  "updatedAt": "2023-05-01T06:13:29.587Z",
  "devdoc": {
    "kind": "dev",
    "methods": {},
    "version": 1
  },
  "userdoc": {
    "kind": "user",
    "methods": {},
    "version": 1
  }
}