{
  "contractName": "PixelCanvasNFT",
  "abi": [
    {
      "inputs": [
        {
          "internalType": "address",
          "name": "_canvasAddress",
          "type": "address"
        }
      ],
      "stateMutability": "nonpayable",
      "type": "constructor"
    },
    {
      "anonymous": false,
      "inputs": [
        {
          "indexed": true,
          "internalType": "address",
          "name": "owner",
          "type": "address"
        },
        {
          "indexed": true,
          "internalType": "address",
          "name": "approved",
          "type": "address"
        },
        {
          "indexed": true,
          "internalType": "uint256",
          "name": "tokenId",
          "type": "uint256"
        }
      ],
      "name": "Approval",
      "type": "event"
    },
    {
      "anonymous": false,
      "inputs": [
        {
          "indexed": true,
          "internalType": "address",
          "name": "owner",
          "type": "address"
        },
        {
          "indexed": true,
          "internalType": "address",
          "name": "operator",
          "type": "address"
        },
        {
          "indexed": false,
          "internalType": "bool",
          "name": "approved",
          "type": "bool"
        }
      ],
      "name": "ApprovalForAll",
      "type": "event"
    },
    {
      "anonymous": false,
      "inputs": [
        {
          "indexed": true,
          "internalType": "address",
          "name": "from",
          "type": "address"
        },
        {
          "indexed": true,
          "internalType": "address",
          "name": "to",
          "type": "address"
        },
        {
          "indexed": true,
          "internalType": "uint256",
          "name": "tokenId",
          "type": "uint256"
        }
      ],
      "name": "Transfer",
      "type": "event"
    },
    {
      "inputs": [
        {
          "internalType": "address",
          "name": "to",
          "type": "address"
        },
        {
          "internalType": "uint256",
          "name": "tokenId",
          "type": "uint256"
        }
      ],
      "name": "approve",
      "outputs": [],
      "stateMutability": "nonpayable",
      "type": "function"
    },
    {
      "inputs": [
        {
          "internalType": "address",
          "name": "owner",
          "type": "address"
        }
      ],
      "name": "balanceOf",
      "outputs": [
        {
          "internalType": "uint256",
          "name": "",
          "type": "uint256"
        }
      ],
      "stateMutability": "view",
      "type": "function"
    },
    {
      "inputs": [],
      "name": "canvasAddress",
      "outputs": [
        {
          "internalType": "address",
          "name": "",
          "type": "address"
        }
      ],
      "stateMutability": "view",
      "type": "function"
    },
    {
      "inputs": [
        {
          "internalType": "uint256",
          "name": "",
          "type": "uint256"
        }
      ],
      "name": "canvasByTokenId",
      "outputs": [
        {
          "internalType": "bytes",
          "name": "",
          "type": "bytes"
        }
      ],
      "stateMutability": "view",
      "type": "function"
    },
    {
      "inputs": [
        {
          "internalType": "uint256",
          "name": "tokenId",
          "type": "uint256"
        }
      ],
      "name": "getApproved",
      "outputs": [
        {
          "internalType": "address",
          "name": "",
          "type": "address"
        }
      ],
      "stateMutability": "view",
      "type": "function"
    },
    {
      "inputs": [
        {
          "internalType": "address",
          "name": "owner",
          "type": "address"
        },
        {
          "internalType": "address",
          "name": "operator",
          "type": "address"
        }
      ],
      "name": "isApprovedForAll",
      "outputs": [
        {
          "internalType": "bool",
          "name": "",
          "type": "bool"
        }
      ],
      "stateMutability": "view",
      "type": "function"
    },
    {
      "inputs": [],
      "name": "name",
      "outputs": [
        {
          "internalType": "string",
          "name": "",
          "type": "string"
        }
      ],
      "stateMutability": "view",
      "type": "function"
    },
    {
      "inputs": [
        {
          "internalType": "uint256",
          "name": "tokenId",
          "type": "uint256"
        }
      ],
      "name": "ownerOf",
      "outputs": [
        {
          "internalType": "address",
          "name": "",
          "type": "address"
        }
      ],
      "stateMutability": "view",
      "type": "function"
    },
    {
      "inputs": [
        {
          "internalType": "address",
          "name": "from",
          "type": "address"
        },
        {
          "internalType": "address",
          "name": "to",
          "type": "address"
        },
        {
          "internalType": "uint256",
          "name": "tokenId",
          "type": "uint256"
        }
      ],
      "name": "safeTransferFrom",
      "outputs": [],
      "stateMutability": "nonpayable",
      "type": "function"
    },
    {
      "inputs": [
        {
          "internalType": "address",
          "name": "from",
          "type": "address"
        },
        {
          "internalType": "address",
          "name": "to",
          "type": "address"
        },
        {
          "internalType": "uint256",
          "name": "tokenId",
          "type": "uint256"
        },
        {
          "internalType": "bytes",
          "name": "data",
          "type": "bytes"
        }
      ],
      "name": "safeTransferFrom",
      "outputs": [],
      "stateMutability": "nonpayable",
      "type": "function"
    },
    {
      "inputs": [
        {
          "internalType": "address",
          "name": "operator",
          "type": "address"
        },
        {
          "internalType": "bool",
          "name": "approved",
          "type": "bool"
        }
      ],
      "name": "setApprovalForAll",
      "outputs": [],
      "stateMutability": "nonpayable",
      "type": "function"
    },
    {
      "inputs": [
        {
          "internalType": "bytes4",
          "name": "interfaceId",
          "type": "bytes4"
        }
      ],
      "name": "supportsInterface",
      "outputs": [
        {
          "internalType": "bool",
          "name": "",
          "type": "bool"
        }
      ],
      "stateMutability": "view",
      "type": "function"
    },
    {
      "inputs": [],
      "name": "symbol",
      "outputs": [
        {
          "internalType": "string",
          "name": "",
          "type": "string"
        }
      ],
      "stateMutability": "view",
      "type": "function"
    },
    {
      "inputs": [
        {
          "internalType": "address",
          "name": "from",
          "type": "address"
        },
        {
          "internalType": "address",
          "name": "to",
          "type": "address"
        },
        {
          "internalType": "uint256",
          "name": "tokenId",
          "type": "uint256"
        }
      ],
      "name": "transferFrom",
      "outputs": [],
      "stateMutability": "nonpayable",
      "type": "function"
    },
    {
      "inputs": [
        {
          "internalType": "uint256",
          "name": "tokenId",
          "type": "uint256"
        }
      ],
      "name": "tokenURI",
      "outputs": [
        {
          "internalType": "string",
          "name": "",
          "type": "string"
        }
      ],
      "stateMutability": "view",
      "type": "function"
    },
    {
      "inputs": [
        {
          "internalType": "address",
          "name": "to",
          "type": "address"
        },
        {
          "internalType": "string",
          "name": "_tokenURI",
          "type": "string"
        }
      ],
      "name": "createToken",
      "outputs": [
        {
          "internalType": "uint256",
          "name": "",
          "type": "uint256"
        }
      ],
      "stateMutability": "nonpayable",
      "type": "function"
    },
    {
      "inputs": [
        {
          "internalType": "uint256",
          "name": "tokenId",
          "type": "uint256"
        },
        {
          "internalType": "string",
          "name": "_tokenURI",
          "type": "string"
        }
      ],
      "name": "setTokenURI",
      "outputs": [],
      "stateMutability": "nonpayable",
      "type": "function"
    },
    {
      "inputs": [
        {
          "internalType": "uint256",
          "name": "tokenId",
          "type": "uint256"
        }
      ],
      "name": "getCanvasData",
      "outputs": [
        {
          "internalType": "uint8[][]",
          "name": "",
          "type": "uint8[][]"
        }
      ],
      "stateMutability": "view",
      "type": "function"
    }
  ],
  "bytecode": "0x60806040523480156200001157600080fd5b50604051620038113803806200381183398181016040528101906200003791906200017b565b6040518060400160405280600e81526020017f506978656c43616e7661734e46540000000000000000000000000000000000008152506040518060400160405280600381526020017f50434e00000000000000000000000000000000000000000000000000000000008152508160009081620000b4919062000427565b508060019081620000c6919062000427565b50505080600860006101000a81548173ffffffffffffffffffffffffffffffffffffffff021916908373ffffffffffffffffffffffffffffffffffffffff160217905550506200050e565b600080fd5b600073ffffffffffffffffffffffffffffffffffffffff82169050919050565b6000620001438262000116565b9050919050565b620001558162000136565b81146200016157600080fd5b50565b60008151905062000175816200014a565b92915050565b60006020828403121562000194576200019362000111565b5b6000620001a48482850162000164565b91505092915050565b600081519050919050565b7f4e487b7100000000000000000000000000000000000000000000000000000000600052604160045260246000fd5b7f4e487b7100000000000000000000000000000000000000000000000000000000600052602260045260246000fd5b600060028204905060018216806200022f57607f821691505b602082108103620002455762000244620001e7565b5b50919050565b60008190508160005260206000209050919050565b60006020601f8301049050919050565b600082821b905092915050565b600060088302620002af7fffffffffffffffffffffffffffffffffffffffffffffffffffffffffffffffff8262000270565b620002bb868362000270565b95508019841693508086168417925050509392505050565b6000819050919050565b6000819050919050565b60006200030862000302620002fc84620002d3565b620002dd565b620002d3565b9050919050565b6000819050919050565b6200032483620002e7565b6200033c62000333826200030f565b8484546200027d565b825550505050565b600090565b6200035362000344565b6200036081848462000319565b505050565b5b8181101562000388576200037c60008262000349565b60018101905062000366565b5050565b601f821115620003d757620003a1816200024b565b620003ac8462000260565b81016020851015620003bc578190505b620003d4620003cb8562000260565b83018262000365565b50505b505050565b600082821c905092915050565b6000620003fc60001984600802620003dc565b1980831691505092915050565b6000620004178383620003e9565b9150826002028217905092915050565b6200043282620001ad565b67ffffffffffffffff8111156200044e576200044d620001b8565b5b6200045a825462000216565b620004678282856200038c565b600060209050601f8311600181146200049f57600084156200048a578287015190505b62000496858262000409565b86555062000506565b601f198416620004af866200024b565b60005b82811015620004d957848901518255600182019150602085019450602081019050620004b2565b86831015620004f95784890151620004f5601f891682620003e9565b8355505b6001600288020188555050505b505050505050565b6132f3806200051e6000396000f3fe608060405234801561001057600080fd5b50600436106101165760003560e01c80636352211e116100a257806395d89b411161007157806395d89b4114610317578063a22cb46514610335578063b88d4fde14610351578063c87b56dd1461036d578063e985e9c51461039d57610116565b80636352211e1461026957806370a08231146102995780637b74f21a146102c957806381653e88146102f957610116565b8063095ea7b3116100e9578063095ea7b3146101c9578063162094c4146101e557806323b872dd1461020157806342842e0e1461021d5780635555d8701461023957610116565b8063013828071461011b57806301ffc9a71461014b57806306fdde031461017b578063081812fc14610199575b600080fd5b61013560048036038101906101309190611e89565b6103cd565b6040516101429190611efe565b60405180910390f35b61016560048036038101906101609190611f71565b61055f565b6040516101729190611fb9565b60405180910390f35b610183610641565b6040516101909190612053565b60405180910390f35b6101b360048036038101906101ae91906120a1565b6106d3565b6040516101c091906120dd565b60405180910390f35b6101e360048036038101906101de91906120f8565b610719565b005b6101ff60048036038101906101fa9190612138565b610830565b005b61021b60048036038101906102169190612194565b610846565b005b61023760048036038101906102329190612194565b6108a6565b005b610253600480360381019061024e91906120a1565b6108c6565b6040516102609190612374565b60405180910390f35b610283600480360381019061027e91906120a1565b610945565b60405161029091906120dd565b60405180910390f35b6102b360048036038101906102ae9190612396565b6109cb565b6040516102c09190611efe565b60405180910390f35b6102e360048036038101906102de91906120a1565b610a82565b6040516102f09190612418565b60405180910390f35b610301610b22565b60405161030e91906120dd565b60405180910390f35b61031f610b48565b60405161032c9190612053565b60405180910390f35b61034f600480360381019061034a9190612466565b610bda565b005b61036b60048036038101906103669190612547565b610bf0565b005b610387600480360381019061038291906120a1565b610c52565b6040516103949190612053565b60405180910390f35b6103b760048036038101906103b291906125ca565b610c64565b6040516103c49190611fb9565b60405180910390f35b6000600860009054906101000a900473ffffffffffffffffffffffffffffffffffffffff1673ffffffffffffffffffffffffffffffffffffffff163373ffffffffffffffffffffffffffffffffffffffff161461045f576040517f08c379a00000000000000000000000000000000000000000000000000000000081526004016104569061267c565b60405180910390fd5b600061046b6007610cf8565b90506104776007610d06565b6104818482610d1c565b6104938161048e83610c52565b610d3a565b6000600860009054906101000a900473ffffffffffffffffffffffffffffffffffffffff16905060008173ffffffffffffffffffffffffffffffffffffffff1663b1d5603b6040518163ffffffff1660e01b8152600401600060405180830381865afa158015610507573d6000803e3d6000fd5b505050506040513d6000823e3d601f19601f82011682018060405250810190610530919061270c565b9050806009600085815260200190815260200160002090816105529190612961565b5082935050505092915050565b60007f80ac58cd000000000000000000000000000000000000000000000000000000007bffffffffffffffffffffffffffffffffffffffffffffffffffffffff1916827bffffffffffffffffffffffffffffffffffffffffffffffffffffffff1916148061062a57507f5b5e139f000000000000000000000000000000000000000000000000000000007bffffffffffffffffffffffffffffffffffffffffffffffffffffffff1916827bffffffffffffffffffffffffffffffffffffffffffffffffffffffff1916145b8061063a575061063982610da7565b5b9050919050565b60606000805461065090612784565b80601f016020809104026020016040519081016040528092919081815260200182805461067c90612784565b80156106c95780601f1061069e576101008083540402835291602001916106c9565b820191906000526020600020905b8154815290600101906020018083116106ac57829003601f168201915b5050505050905090565b60006106de82610e11565b6004600083815260200190815260200160002060009054906101000a900473ffffffffffffffffffffffffffffffffffffffff169050919050565b600061072482610945565b90508073ffffffffffffffffffffffffffffffffffffffff168373ffffffffffffffffffffffffffffffffffffffff1603610794576040517f08c379a000000000000000000000000000000000000000000000000000000000815260040161078b90612aa5565b60405180910390fd5b8073ffffffffffffffffffffffffffffffffffffffff166107b3610e5c565b73ffffffffffffffffffffffffffffffffffffffff1614806107e257506107e1816107dc610e5c565b610c64565b5b610821576040517f08c379a000000000000000000000000000000000000000000000000000000000815260040161081890612b37565b60405180910390fd5b61082b8383610e64565b505050565b6108428261083d84610c52565b610d3a565b5050565b610857610851610e5c565b82610f1d565b610896576040517f08c379a000000000000000000000000000000000000000000000000000000000815260040161088d90612bc9565b60405180910390fd5b6108a1838383610fb2565b505050565b6108c183838360405180602001604052806000815250610bf0565b505050565b6060600060096000848152602001908152602001600020905060008180546108ed90612784565b905067ffffffffffffffff81111561090857610907611d5e565b5b60405190808252806020026020018201604052801561093b57816020015b60608152602001906001900390816109265790505b5090505050919050565b600080610951836112ab565b9050600073ffffffffffffffffffffffffffffffffffffffff168173ffffffffffffffffffffffffffffffffffffffff16036109c2576040517f08c379a00000000000000000000000000000000000000000000000000000000081526004016109b990612c35565b60405180910390fd5b80915050919050565b60008073ffffffffffffffffffffffffffffffffffffffff168273ffffffffffffffffffffffffffffffffffffffff1603610a3b576040517f08c379a0000000000000000000000000000000000000000000000000000000008152600401610a3290612cc7565b60405180910390fd5b600360008373ffffffffffffffffffffffffffffffffffffffff1673ffffffffffffffffffffffffffffffffffffffff168152602001908152602001600020549050919050565b60096020528060005260406000206000915090508054610aa190612784565b80601f0160208091040260200160405190810160405280929190818152602001828054610acd90612784565b8015610b1a5780601f10610aef57610100808354040283529160200191610b1a565b820191906000526020600020905b815481529060010190602001808311610afd57829003601f168201915b505050505081565b600860009054906101000a900473ffffffffffffffffffffffffffffffffffffffff1681565b606060018054610b5790612784565b80601f0160208091040260200160405190810160405280929190818152602001828054610b8390612784565b8015610bd05780601f10610ba557610100808354040283529160200191610bd0565b820191906000526020600020905b815481529060010190602001808311610bb357829003601f168201915b5050505050905090565b610bec610be5610e5c565b83836112e8565b5050565b610c01610bfb610e5c565b83610f1d565b610c40576040517f08c379a0000000000000000000000000000000000000000000000000000000008152600401610c3790612bc9565b60405180910390fd5b610c4c84848484611454565b50505050565b6060610c5d826114b0565b9050919050565b6000600560008473ffffffffffffffffffffffffffffffffffffffff1673ffffffffffffffffffffffffffffffffffffffff16815260200190815260200160002060008373ffffffffffffffffffffffffffffffffffffffff1673ffffffffffffffffffffffffffffffffffffffff16815260200190815260200160002060009054906101000a900460ff16905092915050565b600081600001549050919050565b6001816000016000828254019250508190555050565b610d368282604051806020016040528060008152506115c2565b5050565b610d438261161d565b610d82576040517f08c379a0000000000000000000000000000000000000000000000000000000008152600401610d7990612d59565b60405180910390fd5b80600660008481526020019081526020016000209081610da29190612dd4565b505050565b60007f01ffc9a7000000000000000000000000000000000000000000000000000000007bffffffffffffffffffffffffffffffffffffffffffffffffffffffff1916827bffffffffffffffffffffffffffffffffffffffffffffffffffffffff1916149050919050565b610e1a8161161d565b610e59576040517f08c379a0000000000000000000000000000000000000000000000000000000008152600401610e5090612c35565b60405180910390fd5b50565b600033905090565b816004600083815260200190815260200160002060006101000a81548173ffffffffffffffffffffffffffffffffffffffff021916908373ffffffffffffffffffffffffffffffffffffffff160217905550808273ffffffffffffffffffffffffffffffffffffffff16610ed783610945565b73ffffffffffffffffffffffffffffffffffffffff167f8c5be1e5ebec7d5bd14f71427d1e84f3dd0314c0f7b2291e5b200ac8c7c3b92560405160405180910390a45050565b600080610f2983610945565b90508073ffffffffffffffffffffffffffffffffffffffff168473ffffffffffffffffffffffffffffffffffffffff161480610f6b5750610f6a8185610c64565b5b80610fa957508373ffffffffffffffffffffffffffffffffffffffff16610f91846106d3565b73ffffffffffffffffffffffffffffffffffffffff16145b91505092915050565b8273ffffffffffffffffffffffffffffffffffffffff16610fd282610945565b73ffffffffffffffffffffffffffffffffffffffff1614611028576040517f08c379a000000000000000000000000000000000000000000000000000000000815260040161101f90612f18565b60405180910390fd5b600073ffffffffffffffffffffffffffffffffffffffff168273ffffffffffffffffffffffffffffffffffffffff1603611097576040517f08c379a000000000000000000000000000000000000000000000000000000000815260040161108e90612faa565b60405180910390fd5b6110a4838383600161165e565b8273ffffffffffffffffffffffffffffffffffffffff166110c482610945565b73ffffffffffffffffffffffffffffffffffffffff161461111a576040517f08c379a000000000000000000000000000000000000000000000000000000000815260040161111190612f18565b60405180910390fd5b6004600082815260200190815260200160002060006101000a81549073ffffffffffffffffffffffffffffffffffffffff02191690556001600360008573ffffffffffffffffffffffffffffffffffffffff1673ffffffffffffffffffffffffffffffffffffffff168152602001908152602001600020600082825403925050819055506001600360008473ffffffffffffffffffffffffffffffffffffffff1673ffffffffffffffffffffffffffffffffffffffff16815260200190815260200160002060008282540192505081905550816002600083815260200190815260200160002060006101000a81548173ffffffffffffffffffffffffffffffffffffffff021916908373ffffffffffffffffffffffffffffffffffffffff160217905550808273ffffffffffffffffffffffffffffffffffffffff168473ffffffffffffffffffffffffffffffffffffffff167fddf252ad1be2c89b69c2b068fc378daa952ba7f163c4a11628f55a4df523b3ef60405160405180910390a46112a68383836001611664565b505050565b60006002600083815260200190815260200160002060009054906101000a900473ffffffffffffffffffffffffffffffffffffffff169050919050565b8173ffffffffffffffffffffffffffffffffffffffff168373ffffffffffffffffffffffffffffffffffffffff1603611356576040517f08c379a000000000000000000000000000000000000000000000000000000000815260040161134d90613016565b60405180910390fd5b80600560008573ffffffffffffffffffffffffffffffffffffffff1673ffffffffffffffffffffffffffffffffffffffff16815260200190815260200160002060008473ffffffffffffffffffffffffffffffffffffffff1673ffffffffffffffffffffffffffffffffffffffff16815260200190815260200160002060006101000a81548160ff0219169083151502179055508173ffffffffffffffffffffffffffffffffffffffff168373ffffffffffffffffffffffffffffffffffffffff167f17307eab39ab6107e8899845ad3d59bd9653f200f220920489ca2b5937696c31836040516114479190611fb9565b60405180910390a3505050565b61145f848484610fb2565b61146b8484848461166a565b6114aa576040517f08c379a00000000000000000000000000000000000000000000000000000000081526004016114a1906130a8565b60405180910390fd5b50505050565b60606114bb82610e11565b60006006600084815260200190815260200160002080546114db90612784565b80601f016020809104026020016040519081016040528092919081815260200182805461150790612784565b80156115545780601f1061152957610100808354040283529160200191611554565b820191906000526020600020905b81548152906001019060200180831161153757829003601f168201915b5050505050905060006115656117f1565b9050600081510361157a5781925050506115bd565b6000825111156115af578082604051602001611597929190613104565b604051602081830303815290604052925050506115bd565b6115b884611808565b925050505b919050565b6115cc8383611870565b6115d9600084848461166a565b611618576040517f08c379a000000000000000000000000000000000000000000000000000000000815260040161160f906130a8565b60405180910390fd5b505050565b60008073ffffffffffffffffffffffffffffffffffffffff1661163f836112ab565b73ffffffffffffffffffffffffffffffffffffffff1614159050919050565b50505050565b50505050565b600061168b8473ffffffffffffffffffffffffffffffffffffffff16611a8d565b156117e4578373ffffffffffffffffffffffffffffffffffffffff1663150b7a026116b4610e5c565b8786866040518563ffffffff1660e01b81526004016116d69493929190613128565b6020604051808303816000875af192505050801561171257506040513d601f19601f8201168201806040525081019061170f9190613189565b60015b611794573d8060008114611742576040519150601f19603f3d011682016040523d82523d6000602084013e611747565b606091505b50600081510361178c576040517f08c379a0000000000000000000000000000000000000000000000000000000008152600401611783906130a8565b60405180910390fd5b805181602001fd5b63150b7a0260e01b7bffffffffffffffffffffffffffffffffffffffffffffffffffffffff1916817bffffffffffffffffffffffffffffffffffffffffffffffffffffffff1916149150506117e9565b600190505b949350505050565b606060405180602001604052806000815250905090565b606061181382610e11565b600061181d6117f1565b9050600081511161183d5760405180602001604052806000815250611868565b8061184784611ab0565b604051602001611858929190613104565b6040516020818303038152906040525b915050919050565b600073ffffffffffffffffffffffffffffffffffffffff168273ffffffffffffffffffffffffffffffffffffffff16036118df576040517f08c379a00000000000000000000000000000000000000000000000000000000081526004016118d690613202565b60405180910390fd5b6118e88161161d565b15611928576040517f08c379a000000000000000000000000000000000000000000000000000000000815260040161191f9061326e565b60405180910390fd5b61193660008383600161165e565b61193f8161161d565b1561197f576040517f08c379a00000000000000000000000000000000000000000000000000000000081526004016119769061326e565b60405180910390fd5b6001600360008473ffffffffffffffffffffffffffffffffffffffff1673ffffffffffffffffffffffffffffffffffffffff16815260200190815260200160002060008282540192505081905550816002600083815260200190815260200160002060006101000a81548173ffffffffffffffffffffffffffffffffffffffff021916908373ffffffffffffffffffffffffffffffffffffffff160217905550808273ffffffffffffffffffffffffffffffffffffffff16600073ffffffffffffffffffffffffffffffffffffffff167fddf252ad1be2c89b69c2b068fc378daa952ba7f163c4a11628f55a4df523b3ef60405160405180910390a4611a89600083836001611664565b5050565b6000808273ffffffffffffffffffffffffffffffffffffffff163b119050919050565b606060006001611abf84611b7e565b01905060008167ffffffffffffffff811115611ade57611add611d5e565b5b6040519080825280601f01601f191660200182016040528015611b105781602001600182028036833780820191505090505b509050600082602001820190505b600115611b73578080600190039150507f3031323334353637383961626364656600000000000000000000000000000000600a86061a8153600a8581611b6757611b6661328e565b5b04945060008503611b1e575b819350505050919050565b600080600090507a184f03e93ff9f4daa797ed6e38ed64bf6a1f0100000000000000008310611bdc577a184f03e93ff9f4daa797ed6e38ed64bf6a1f0100000000000000008381611bd257611bd161328e565b5b0492506040810190505b6d04ee2d6d415b85acef81000000008310611c19576d04ee2d6d415b85acef81000000008381611c0f57611c0e61328e565b5b0492506020810190505b662386f26fc100008310611c4857662386f26fc100008381611c3e57611c3d61328e565b5b0492506010810190505b6305f5e1008310611c71576305f5e1008381611c6757611c6661328e565b5b0492506008810190505b6127108310611c96576127108381611c8c57611c8b61328e565b5b0492506004810190505b60648310611cb95760648381611caf57611cae61328e565b5b0492506002810190505b600a8310611cc8576001810190505b80915050919050565b6000604051905090565b600080fd5b600080fd5b600073ffffffffffffffffffffffffffffffffffffffff82169050919050565b6000611d1082611ce5565b9050919050565b611d2081611d05565b8114611d2b57600080fd5b50565b600081359050611d3d81611d17565b92915050565b600080fd5b600080fd5b6000601f19601f8301169050919050565b7f4e487b7100000000000000000000000000000000000000000000000000000000600052604160045260246000fd5b611d9682611d4d565b810181811067ffffffffffffffff82111715611db557611db4611d5e565b5b80604052505050565b6000611dc8611cd1565b9050611dd48282611d8d565b919050565b600067ffffffffffffffff821115611df457611df3611d5e565b5b611dfd82611d4d565b9050602081019050919050565b82818337600083830152505050565b6000611e2c611e2784611dd9565b611dbe565b905082815260208101848484011115611e4857611e47611d48565b5b611e53848285611e0a565b509392505050565b600082601f830112611e7057611e6f611d43565b5b8135611e80848260208601611e19565b91505092915050565b60008060408385031215611ea057611e9f611cdb565b5b6000611eae85828601611d2e565b925050602083013567ffffffffffffffff811115611ecf57611ece611ce0565b5b611edb85828601611e5b565b9150509250929050565b6000819050919050565b611ef881611ee5565b82525050565b6000602082019050611f136000830184611eef565b92915050565b60007fffffffff0000000000000000000000000000000000000000000000000000000082169050919050565b611f4e81611f19565b8114611f5957600080fd5b50565b600081359050611f6b81611f45565b92915050565b600060208284031215611f8757611f86611cdb565b5b6000611f9584828501611f5c565b91505092915050565b60008115159050919050565b611fb381611f9e565b82525050565b6000602082019050611fce6000830184611faa565b92915050565b600081519050919050565b600082825260208201905092915050565b60005b8381101561200e578082015181840152602081019050611ff3565b60008484015250505050565b600061202582611fd4565b61202f8185611fdf565b935061203f818560208601611ff0565b61204881611d4d565b840191505092915050565b6000602082019050818103600083015261206d818461201a565b905092915050565b61207e81611ee5565b811461208957600080fd5b50565b60008135905061209b81612075565b92915050565b6000602082840312156120b7576120b6611cdb565b5b60006120c58482850161208c565b91505092915050565b6120d781611d05565b82525050565b60006020820190506120f260008301846120ce565b92915050565b6000806040838503121561210f5761210e611cdb565b5b600061211d85828601611d2e565b925050602061212e8582860161208c565b9150509250929050565b6000806040838503121561214f5761214e611cdb565b5b600061215d8582860161208c565b925050602083013567ffffffffffffffff81111561217e5761217d611ce0565b5b61218a85828601611e5b565b9150509250929050565b6000806000606084860312156121ad576121ac611cdb565b5b60006121bb86828701611d2e565b93505060206121cc86828701611d2e565b92505060406121dd8682870161208c565b9150509250925092565b600081519050919050565b600082825260208201905092915050565b6000819050602082019050919050565b600081519050919050565b600082825260208201905092915050565b6000819050602082019050919050565b600060ff82169050919050565b6122558161223f565b82525050565b6000612267838361224c565b60208301905092915050565b6000602082019050919050565b600061228b82612213565b612295818561221e565b93506122a08361222f565b8060005b838110156122d15781516122b8888261225b565b97506122c383612273565b9250506001810190506122a4565b5085935050505092915050565b60006122ea8383612280565b905092915050565b6000602082019050919050565b600061230a826121e7565b61231481856121f2565b93508360208202850161232685612203565b8060005b85811015612362578484038952815161234385826122de565b945061234e836122f2565b925060208a0199505060018101905061232a565b50829750879550505050505092915050565b6000602082019050818103600083015261238e81846122ff565b905092915050565b6000602082840312156123ac576123ab611cdb565b5b60006123ba84828501611d2e565b91505092915050565b600081519050919050565b600082825260208201905092915050565b60006123ea826123c3565b6123f481856123ce565b9350612404818560208601611ff0565b61240d81611d4d565b840191505092915050565b6000602082019050818103600083015261243281846123df565b905092915050565b61244381611f9e565b811461244e57600080fd5b50565b6000813590506124608161243a565b92915050565b6000806040838503121561247d5761247c611cdb565b5b600061248b85828601611d2e565b925050602061249c85828601612451565b9150509250929050565b600067ffffffffffffffff8211156124c1576124c0611d5e565b5b6124ca82611d4d565b9050602081019050919050565b60006124ea6124e5846124a6565b611dbe565b90508281526020810184848401111561250657612505611d48565b5b612511848285611e0a565b509392505050565b600082601f83011261252e5761252d611d43565b5b813561253e8482602086016124d7565b91505092915050565b6000806000806080858703121561256157612560611cdb565b5b600061256f87828801611d2e565b945050602061258087828801611d2e565b93505060406125918782880161208c565b925050606085013567ffffffffffffffff8111156125b2576125b1611ce0565b5b6125be87828801612519565b91505092959194509250565b600080604083850312156125e1576125e0611cdb565b5b60006125ef85828601611d2e565b925050602061260085828601611d2e565b9150509250929050565b7f4f6e6c79207468652043616e76617320636f6e74726163742063616e206d696e60008201527f7420746f6b656e732e0000000000000000000000000000000000000000000000602082015250565b6000612666602983611fdf565b91506126718261260a565b604082019050919050565b6000602082019050818103600083015261269581612659565b9050919050565b60006126af6126aa846124a6565b611dbe565b9050828152602081018484840111156126cb576126ca611d48565b5b6126d6848285611ff0565b509392505050565b600082601f8301126126f3576126f2611d43565b5b815161270384826020860161269c565b91505092915050565b60006020828403121561272257612721611cdb565b5b600082015167ffffffffffffffff8111156127405761273f611ce0565b5b61274c848285016126de565b91505092915050565b7f4e487b7100000000000000000000000000000000000000000000000000000000600052602260045260246000fd5b6000600282049050600182168061279c57607f821691505b6020821081036127af576127ae612755565b5b50919050565b60008190508160005260206000209050919050565b60006020601f8301049050919050565b600082821b905092915050565b6000600883026128177fffffffffffffffffffffffffffffffffffffffffffffffffffffffffffffffff826127da565b61282186836127da565b95508019841693508086168417925050509392505050565b6000819050919050565b600061285e61285961285484611ee5565b612839565b611ee5565b9050919050565b6000819050919050565b61287883612843565b61288c61288482612865565b8484546127e7565b825550505050565b600090565b6128a1612894565b6128ac81848461286f565b505050565b5b818110156128d0576128c5600082612899565b6001810190506128b2565b5050565b601f821115612915576128e6816127b5565b6128ef846127ca565b810160208510156128fe578190505b61291261290a856127ca565b8301826128b1565b50505b505050565b600082821c905092915050565b60006129386000198460080261291a565b1980831691505092915050565b60006129518383612927565b9150826002028217905092915050565b61296a826123c3565b67ffffffffffffffff81111561298357612982611d5e565b5b61298d8254612784565b6129988282856128d4565b600060209050601f8311600181146129cb57600084156129b9578287015190505b6129c38582612945565b865550612a2b565b601f1984166129d9866127b5565b60005b82811015612a01578489015182556001820191506020850194506020810190506129dc565b86831015612a1e5784890151612a1a601f891682612927565b8355505b6001600288020188555050505b505050505050565b7f4552433732313a20617070726f76616c20746f2063757272656e74206f776e6560008201527f7200000000000000000000000000000000000000000000000000000000000000602082015250565b6000612a8f602183611fdf565b9150612a9a82612a33565b604082019050919050565b60006020820190508181036000830152612abe81612a82565b9050919050565b7f4552433732313a20617070726f76652063616c6c6572206973206e6f7420746f60008201527f6b656e206f776e6572206f7220617070726f76656420666f7220616c6c000000602082015250565b6000612b21603d83611fdf565b9150612b2c82612ac5565b604082019050919050565b60006020820190508181036000830152612b5081612b14565b9050919050565b7f4552433732313a2063616c6c6572206973206e6f7420746f6b656e206f776e6560008201527f72206f7220617070726f76656400000000000000000000000000000000000000602082015250565b6000612bb3602d83611fdf565b9150612bbe82612b57565b604082019050919050565b60006020820190508181036000830152612be281612ba6565b9050919050565b7f4552433732313a20696e76616c696420746f6b656e2049440000000000000000600082015250565b6000612c1f601883611fdf565b9150612c2a82612be9565b602082019050919050565b60006020820190508181036000830152612c4e81612c12565b9050919050565b7f4552433732313a2061646472657373207a65726f206973206e6f74206120766160008201527f6c6964206f776e65720000000000000000000000000000000000000000000000602082015250565b6000612cb1602983611fdf565b9150612cbc82612c55565b604082019050919050565b60006020820190508181036000830152612ce081612ca4565b9050919050565b7f45524337323155524953746f726167653a2055524920736574206f66206e6f6e60008201527f6578697374656e7420746f6b656e000000000000000000000000000000000000602082015250565b6000612d43602e83611fdf565b9150612d4e82612ce7565b604082019050919050565b60006020820190508181036000830152612d7281612d36565b9050919050565b60008190508160005260206000209050919050565b601f821115612dcf57612da081612d79565b612da9846127ca565b81016020851015612db8578190505b612dcc612dc4856127ca565b8301826128b1565b50505b505050565b612ddd82611fd4565b67ffffffffffffffff811115612df657612df5611d5e565b5b612e008254612784565b612e0b828285612d8e565b600060209050601f831160018114612e3e5760008415612e2c578287015190505b612e368582612945565b865550612e9e565b601f198416612e4c86612d79565b60005b82811015612e7457848901518255600182019150602085019450602081019050612e4f565b86831015612e915784890151612e8d601f891682612927565b8355505b6001600288020188555050505b505050505050565b7f4552433732313a207472616e736665722066726f6d20696e636f72726563742060008201527f6f776e6572000000000000000000000000000000000000000000000000000000602082015250565b6000612f02602583611fdf565b9150612f0d82612ea6565b604082019050919050565b60006020820190508181036000830152612f3181612ef5565b9050919050565b7f4552433732313a207472616e7366657220746f20746865207a65726f2061646460008201527f7265737300000000000000000000000000000000000000000000000000000000602082015250565b6000612f94602483611fdf565b9150612f9f82612f38565b604082019050919050565b60006020820190508181036000830152612fc381612f87565b9050919050565b7f4552433732313a20617070726f766520746f2063616c6c657200000000000000600082015250565b6000613000601983611fdf565b915061300b82612fca565b602082019050919050565b6000602082019050818103600083015261302f81612ff3565b9050919050565b7f4552433732313a207472616e7366657220746f206e6f6e20455243373231526560008201527f63656976657220696d706c656d656e7465720000000000000000000000000000602082015250565b6000613092603283611fdf565b915061309d82613036565b604082019050919050565b600060208201905081810360008301526130c181613085565b9050919050565b600081905092915050565b60006130de82611fd4565b6130e881856130c8565b93506130f8818560208601611ff0565b80840191505092915050565b600061311082856130d3565b915061311c82846130d3565b91508190509392505050565b600060808201905061313d60008301876120ce565b61314a60208301866120ce565b6131576040830185611eef565b818103606083015261316981846123df565b905095945050505050565b60008151905061318381611f45565b92915050565b60006020828403121561319f5761319e611cdb565b5b60006131ad84828501613174565b91505092915050565b7f4552433732313a206d696e7420746f20746865207a65726f2061646472657373600082015250565b60006131ec602083611fdf565b91506131f7826131b6565b602082019050919050565b6000602082019050818103600083015261321b816131df565b9050919050565b7f4552433732313a20746f6b656e20616c7265616479206d696e74656400000000600082015250565b6000613258601c83611fdf565b915061326382613222565b602082019050919050565b600060208201905081810360008301526132878161324b565b9050919050565b7f4e487b7100000000000000000000000000000000000000000000000000000000600052601260045260246000fdfea26469706673582212206ad7f1395a6cad5a5f0268b538d129198650b81c9d31595042ae2037acc5516064736f6c63430008130033",
  "immutableReferences": {},
  "source": "// SPDX-License-Identifier: MIT\r\npragma solidity ^0.8.0;\r\n\r\nimport \"@openzeppelin/contracts/token/ERC721/ERC721.sol\";        \r\nimport \"@openzeppelin/contracts/token/ERC721/extensions/ERC721URIStorage.sol\";\r\nimport \"@openzeppelin/contracts/utils/Counters.sol\";  \r\nimport \"./CanvasContract.sol\";\r\n\r\ncontract PixelCanvasNFT is ERC721, ERC721URIStorage {\r\n    using Counters for Counters.Counter;\r\n    Counters.Counter private _tokenIdCounter;\r\n\r\n    address public canvasAddress;\r\n\r\n    mapping(uint256 => bytes) public canvasByTokenId;\r\n\r\n    constructor(address _canvasAddress) ERC721(\"PixelCanvasNFT\", \"PCN\") {\r\n        canvasAddress = _canvasAddress;\r\n    }\r\n\r\n    //  _beforeTokenTransfer \r\n    function _beforeTokenTransfer(address from, address to, uint256 tokenId) internal  { \r\n        super._beforeTokenTransfer(from, to, tokenId, 0);\r\n    }\r\n\r\n\r\n\r\n    function tokenURI(uint256 tokenId) public view virtual override(ERC721, ERC721URIStorage) returns (string memory) {\r\n    return ERC721URIStorage.tokenURI(tokenId);\r\n    }\r\n\r\n    //  _burn \r\n    function _burn(uint256 tokenId) internal override(ERC721, ERC721URIStorage) {\r\n        super._burn(tokenId);\r\n    }\r\n\r\n    // NFT\r\n    function createToken(address to, string memory _tokenURI) public returns (uint256) {\r\n        require(msg.sender == canvasAddress, \"Only the Canvas contract can mint tokens.\");\r\n        uint256 newTokenId = _tokenIdCounter.current();\r\n        _tokenIdCounter.increment();\r\n        _safeMint(to, newTokenId);\r\n        _setTokenURI(newTokenId, tokenURI(newTokenId)); \r\n\r\n        //  Canvas \r\n        Canvas canvasInstance = Canvas(canvasAddress);\r\n        bytes memory canvasData = canvasInstance.getCanvasData();\r\n\r\n\r\n        canvasByTokenId[newTokenId] = canvasData;\r\n        return newTokenId;\r\n    }\r\n\r\n\r\n    // NFTURI\r\n    function setTokenURI(uint256 tokenId, string memory _tokenURI) external {\r\n        _setTokenURI(tokenId, tokenURI(tokenId)); \r\n    }\r\n\r\n\r\n    // \r\n    function getCanvasData(uint256 tokenId) external view returns (uint8[][] memory) {\r\n        bytes storage ref = canvasByTokenId[tokenId];\r\n        uint8[][] memory canvasData = new uint8[][](ref.length);\r\n        // Convert ref to canvasData and return canvasData\r\n} \r\n\r\n}\r\n",
  "sourcePath": "C:\\Users\\cheny\\Documents\\GitHub\\Pixel-Canvas\\contracts\\NFT.sol",
  "compiler": {
    "name": "solc",
    "version": "0.8.19+commit.7dd6d404.Emscripten.clang"
  },
  "schemaVersion": "3.4.13",
  "updatedAt": "2023-05-01T06:13:29.577Z",
  "devdoc": {
    "events": {
      "Approval(address,address,uint256)": {
        "details": "Emitted when `owner` enables `approved` to manage the `tokenId` token."
      },
      "ApprovalForAll(address,address,bool)": {
        "details": "Emitted when `owner` enables or disables (`approved`) `operator` to manage all of its assets."
      },
      "Transfer(address,address,uint256)": {
        "details": "Emitted when `tokenId` token is transferred from `from` to `to`."
      }
    },
    "kind": "dev",
    "methods": {
      "approve(address,uint256)": {
        "details": "See {IERC721-approve}."
      },
      "balanceOf(address)": {
        "details": "See {IERC721-balanceOf}."
      },
      "getApproved(uint256)": {
        "details": "See {IERC721-getApproved}."
      },
      "isApprovedForAll(address,address)": {
        "details": "See {IERC721-isApprovedForAll}."
      },
      "name()": {
        "details": "See {IERC721Metadata-name}."
      },
      "ownerOf(uint256)": {
        "details": "See {IERC721-ownerOf}."
      },
      "safeTransferFrom(address,address,uint256)": {
        "details": "See {IERC721-safeTransferFrom}."
      },
      "safeTransferFrom(address,address,uint256,bytes)": {
        "details": "See {IERC721-safeTransferFrom}."
      },
      "setApprovalForAll(address,bool)": {
        "details": "See {IERC721-setApprovalForAll}."
      },
      "supportsInterface(bytes4)": {
        "details": "See {IERC165-supportsInterface}."
      },
      "symbol()": {
        "details": "See {IERC721Metadata-symbol}."
      },
      "transferFrom(address,address,uint256)": {
        "details": "See {IERC721-transferFrom}."
      }
    },
    "version": 1
  },
  "userdoc": {
    "kind": "user",
    "methods": {},
    "version": 1
  }
}